:060000000A128A11E62934
:10000800F000030EF1000B1812208C1894220B1923
:100018005320710E8300F00E700E0900871A172006
:10002800071A35200800061CAD0A2D08893C031C58
:100038008522861CAD032D08573C03188222061C16
:10004800B20A3208323C031C8B22861CB2033208E7
:10005800013C03188822061DAE0A2E0801390B1030
:100068000800061CAD0A2D08BC3C031C7F22861C18
:10007800AD032D088A3C03187C22061CB20A3208FC
:10008800653C031C9122861CB2033208333C0318DA
:100098008E22061DAE0A2E0801390B1008004F22C9
:1000A800331C58285D2808004F2233147F08850028
:0A00B80008004F22331085010800F4
:100200008A010A140F398207C034F9342434303497
:10021000193412340234F8340034103448340334BE
:10022000C634213406340E348A010A14FF39820799
:100230000A340D341334163417341A341F34273467
:100240002F34313431343E344C344E3451346034F4
:1002500062340034013409340C3413341834273434
:100260002D34343438343C343E344134453446340F
:100270004A3455345D3400340534093412341434AE
:1002800019342434293430343B3442344934503422
:100290005834613405340E3415341E3426342F346A
:1002A000383441344A3455345E3404340F3418340D
:1002B00024342D34383443344E345A3402340F3419
:1002C000193426343F3446344E3403341234123455
:1002D00020342F344D345A345D34093419342A34DF
:1002E0003C344D345F340D342134333447345C3482
:1002F0000C3423343A344F3403348A010A14FF395E
:1003000082070734073407340734073407340734C7
:100310000734073407340734073407340734073405
:1003200007340734083408340834083408340834EF
:1003300008340834083408340834083408340834DD
:1003400008340834083408340934093409340934C9
:1003500009340934093409340934093409340934B5
:100360000934093409340A340A340A340A340A34A0
:100370000A340A340A340A340A340A340B340B348B
:100380000B340B340B340B340B340B340B340C3474
:100390000C340C340C340C340C340C340D340D345B
:1003A0000D340D340D340D340D340D340E340E3443
:1003B0000E340E340E340E340F340F340F340F3429
:1003C0000F3410341034103410341134F22131222F
:1003D0002622382242225522A2227322C722E92253
:1003E0006A22EC29031783168801890103138316F7
:1003F00085010313831686010313831687010313F4
:1004000083168801861406140615861587120713AD
:100410008113951415141515951503138312850171
:1004200003138312860103138312870103138312BC
:100430008801A001A1015730AD00AE010130B2002A
:1004400003148601061508308800831003138316F1
:1004500096141614161596150313831206080B101E
:100460000800031383160F178F160F160F140800BA
:10047000031383128B178B150B108B160B118C1417
:100480008C1008000313831681128111011181144D
:10049000011003138312803081000B110800031335
:1004A00083122D0881000B1108000313831212150B
:1004B000921012101213921212129211B430920072
:1004C0008C100800B43003138316920003138312B8
:1004D0008C100800AE180716AE188712AE1C8716CF
:1004E000AE1C07120800013032021421B0000130A6
:1004F00032027D21B10008008A30AD000800BC3016
:10050000AD0008005730AD0008008930AD0008008C
:100510000130B20008003230B20008003330B200BF
:1005200008006530B200080062220710871007112A
:1005300087112818C12AA818BB2A2819B52AA81972
:10054000AF2A080025080021A90023080021AA00DD
:1005500022080021AB0026080021AC0008002C086E
:1005600088008715A8112815080029088800071594
:100570002811A81408002A0888008714A810281435
:1005800008002B08880007142810A8150800A401EB
:10059000A301A2013008A0006430A002A40A03183D
:1005A000CC2AA4036430A007D62208000A30A00297
:1005B000A30A0318D62AA3030A30A007E0220800E2
:1005C0000130A002A20A0318E02AA2030130A0070A
:1005D0000800A701A601A5013108A1006430A1020D
:1005E000A70A0318EE2AA7036430A107F82208001F
:1005F0000A30A102A60A0318F82AA6030A30A107A6
:10060000022308000130A102A50A0318022BA5034A
:060610000130A107080003
:04400E00D420FF3F7C
:00000001FF
